{
  "abi": [
    {
      "inputs": [
        {
          "internalType": "uint256",
          "name": "_salt",
          "type": "uint256"
        }
      ],
      "name": "getCreate2Address",
      "outputs": [
        {
          "internalType": "address",
          "name": "",
          "type": "address"
        }
      ],
      "stateMutability": "view",
      "type": "function"
    }
  ],
  "bytecode": {
    "object": "0x608060405234801561001057600080fd5b506111cc806100206000396000f3fe608060405234801561001057600080fd5b506004361061002b5760003560e01c8063aa3db08114610030575b600080fd5b61004361003e3660046100de565b61005f565b6040516001600160a01b03909116815260200160405180910390f35b60008060405180602001610072906100d1565b6020820181038252601f19601f820116604052509050600061009f8460001b8380519060200120306100a7565b949350505050565b6000604051836040820152846020820152828152600b8101905060ff815360559020949350505050565b61109f806100f883390190565b6000602082840312156100f057600080fd5b503591905056fe608060405234801561001057600080fd5b5061107f806100206000396000f3fe6080604052600436106100c25760003560e01c8063491606581161007f57806389a302711161005957806389a3027114610203578063997f35eb146102235780639ff931f914610243578063f76f8d781461026357600080fd5b806349160658146101b0578063559fda33146101d057806385b6813c146101f057600080fd5b80630d114ef8146100c75780630e7e4205146100f25780630ec48e5314610116578063116191b6146101385780631a98b2e014610170578063338c537114610190575b600080fd5b3480156100d357600080fd5b506100dc610294565b6040516100e991906108af565b60405180910390f35b3480156100fe57600080fd5b5061010860045481565b6040519081526020016100e9565b34801561012257600080fd5b50610136610131366004610984565b610322565b005b34801561014457600080fd5b50600054610158906001600160a01b031681565b6040516001600160a01b0390911681526020016100e9565b34801561017c57600080fd5b5061013661018b366004610a80565b610509565b34801561019c57600080fd5b50600254610158906001600160a01b031681565b3480156101bc57600080fd5b506101366101cb366004610b5a565b6105cf565b3480156101dc57600080fd5b50600654610158906001600160a01b031681565b6101366101fe366004610bfe565b61068c565b34801561020f57600080fd5b50600554610158906001600160a01b031681565b34801561022f57600080fd5b50600754610158906001600160a01b031681565b34801561024f57600080fd5b50600154610158906001600160a01b031681565b34801561026f57600080fd5b506100dc60405180604001604052806005815260200164615553444360d81b81525081565b600380546102a190610c3b565b80601f01602080910402602001604051908101604052809291908181526020018280546102cd90610c3b565b801561031a5780601f106102ef5761010080835404028352916020019161031a565b820191906000526020600020905b8154815290600101906020018083116102fd57829003601f168201915b505050505081565b600154600160a01b900460ff16156103765760405162461bcd60e51b8152602060048201526013602482015272105b1c9958591e481a5b9a5d1a585b1a5e9959606a1b604482015260640160405180910390fd5b600080546001600160a01b0319166001600160a01b038516179055600180546001600160a01b0319166001600160a01b03881617905560036103b88682610cc0565b50600580546001600160a01b038087166001600160a01b03199283161783556002805487831693169290921790915560005460408051808201825293845264615553444360d81b6020850152516349ad89fb60e11b815291169163935b13f69161042591906004016108af565b602060405180830381865afa158015610442573d6000803e3d6000fd5b505050506040513d601f19601f820116820180604052508101906104669190610d80565b600680546001600160a01b03199081166001600160a01b039384169081179092556007805490911685841617905560025460405163095ea7b360e01b81529216600483015260001960248301529063095ea7b3906044016020604051808303816000875af11580156104dc573d6000803e3d6000fd5b505050506040513d601f19601f820116820180604052508101906105009190610d9d565b50505050505050565b6000858560405161051b929190610dbf565b604051908190038120600054631876eed960e01b83529092506001600160a01b031690631876eed990610562908e908e908e908e908e9089908d908d908d90600401610df8565b6020604051808303816000875af1158015610581573d6000803e3d6000fd5b505050506040513d601f19601f820116820180604052508101906105a59190610d9d565b6105c257604051631403112d60e21b815260040160405180910390fd5b5050505050505050505050565b600082826040516105e1929190610dbf565b604051908190038120600054635f6970c360e01b83529092506001600160a01b031690635f6970c390610622908b908b908b908b908b908990600401610e57565b6020604051808303816000875af1158015610641573d6000803e3d6000fd5b505050506040513d601f19601f820116820180604052508101906106659190610d9d565b61068257604051631403112d60e21b815260040160405180910390fd5b5050505050505050565b600154604080516001600160a01b0390921660208301526000910160408051808303601f1901815290829052600480546005546370a0823160e01b855230928501929092529193506000926001600160a01b03909116906370a0823190602401602060405180830381865afa158015610709573d6000803e3d6000fd5b505050506040513d601f19601f8201168201806040525081019061072d9190610e98565b6107379190610ec7565b9050806004600082825461074b9190610ee0565b909155505034156107e1576007546040805180820182526005815264615553444360d81b60208201529051636316100160e11b81526001600160a01b039092169163c62c20029134916107ae9130916003918a918a91908a903390600401610f70565b6000604051808303818588803b1580156107c757600080fd5b505af11580156107db573d6000803e3d6000fd5b50505050505b6000546040805180820182526005815264615553444360d81b60208201529051632d505c2160e21b81526001600160a01b039092169163b5417084916108339160039188918891908890600401610fe9565b600060405180830381600087803b15801561084d57600080fd5b505af1158015610500573d6000803e3d6000fd5b505050505050565b6000815180845260005b8181101561088f57602081850181015186830182015201610873565b506000602082860101526020601f19601f83011685010191505092915050565b6020815260006108c26020830184610869565b9392505050565b6001600160a01b03811681146108de57600080fd5b50565b634e487b7160e01b600052604160045260246000fd5b600082601f83011261090857600080fd5b813567ffffffffffffffff80821115610923576109236108e1565b604051601f8301601f19908116603f0116810190828211818310171561094b5761094b6108e1565b8160405283815286602085880101111561096457600080fd5b836020870160208301376000602085830101528094505050505092915050565b60008060008060008060c0878903121561099d57600080fd5b86356109a8816108c9565b9550602087013567ffffffffffffffff808211156109c557600080fd5b6109d18a838b016108f7565b9650604089013591506109e3826108c9565b9094506060880135906109f5826108c9565b909350608088013590610a07826108c9565b90925060a08801359080821115610a1d57600080fd5b50610a2a89828a016108f7565b9150509295509295509295565b60008083601f840112610a4957600080fd5b50813567ffffffffffffffff811115610a6157600080fd5b602083019150836020828501011115610a7957600080fd5b9250929050565b60008060008060008060008060008060c08b8d031215610a9f57600080fd5b8a35995060208b013567ffffffffffffffff80821115610abe57600080fd5b610aca8e838f01610a37565b909b50995060408d0135915080821115610ae357600080fd5b610aef8e838f01610a37565b909950975060608d0135915080821115610b0857600080fd5b610b148e838f01610a37565b909750955060808d0135915080821115610b2d57600080fd5b50610b3a8d828e01610a37565b9150809450508092505060a08b013590509295989b9194979a5092959850565b60008060008060008060006080888a031215610b7557600080fd5b87359650602088013567ffffffffffffffff80821115610b9457600080fd5b610ba08b838c01610a37565b909850965060408a0135915080821115610bb957600080fd5b610bc58b838c01610a37565b909650945060608a0135915080821115610bde57600080fd5b50610beb8a828b01610a37565b989b979a50959850939692959293505050565b600060208284031215610c1057600080fd5b813567ffffffffffffffff811115610c2757600080fd5b610c33848285016108f7565b949350505050565b600181811c90821680610c4f57607f821691505b602082108103610c6f57634e487b7160e01b600052602260045260246000fd5b50919050565b601f821115610cbb57600081815260208120601f850160051c81016020861015610c9c5750805b601f850160051c820191505b8181101561086157828155600101610ca8565b505050565b815167ffffffffffffffff811115610cda57610cda6108e1565b610cee81610ce88454610c3b565b84610c75565b602080601f831160018114610d235760008415610d0b5750858301515b600019600386901b1c1916600185901b178555610861565b600085815260208120601f198616915b82811015610d5257888601518255948401946001909101908401610d33565b5085821015610d705787850151600019600388901b60f8161c191681555b5050505050600190811b01905550565b600060208284031215610d9257600080fd5b81516108c2816108c9565b600060208284031215610daf57600080fd5b815180151581146108c257600080fd5b8183823760009101908152919050565b81835281816020850137506000828201602090810191909152601f909101601f19169091010190565b89815260c060208201526000610e1260c083018a8c610dcf565b8281036040840152610e2581898b610dcf565b90508660608401528281036080840152610e40818688610dcf565b9150508260a08301529a9950505050505050505050565b868152608060208201526000610e71608083018789610dcf565b8281036040840152610e84818688610dcf565b915050826060830152979650505050505050565b600060208284031215610eaa57600080fd5b5051919050565b634e487b7160e01b600052601160045260246000fd5b81810381811115610eda57610eda610eb1565b92915050565b80820180821115610eda57610eda610eb1565b60008154610f0081610c3b565b808552602060018381168015610f1d5760018114610f3757610f65565b60ff1985168884015283151560051b880183019550610f65565b866000528260002060005b85811015610f5d5781548a8201860152908301908401610f42565b890184019650505b505050505092915050565b600060018060a01b03808a16835260e06020840152610f9260e084018a610ef3565b8381036040850152610fa4818a610869565b90508381036060850152610fb88189610869565b90508381036080850152610fcc8188610869565b60a0850196909652509290921660c0909101525095945050505050565b60a081526000610ffc60a0830188610ef3565b828103602084015261100e8188610869565b905082810360408401526110228187610869565b905082810360608401526110368186610869565b915050826080830152969550505050505056fea26469706673582212202ed52113246d06ca3f2e14d78a4e4d872fe2b972fa5f0cf0b428990d44494a1f64736f6c63430008130033a2646970667358221220832ee20dfee93c06404149b6e29cb6daf78245d35580054bd47f3a8af89dc55f64736f6c63430008130033",
    "linkReferences": {}
  },
  "methodIdentifiers": {
    "getCreate2Address(uint256)": "aa3db081"
  },
  "id": 4
}