{
    "abi": [
        {
            "inputs": [],
            "stateMutability": "nonpayable",
            "type": "constructor"
        },
        {
            "inputs": [],
            "name": "InvalidAddress",
            "type": "error"
        },
        {
            "inputs": [],
            "name": "NotApprovedByGateway",
            "type": "error"
        },
        {
            "anonymous": false,
            "inputs": [
                {
                    "indexed": true,
                    "internalType": "address",
                    "name": "previousOwner",
                    "type": "address"
                },
                {
                    "indexed": true,
                    "internalType": "address",
                    "name": "newOwner",
                    "type": "address"
                }
            ],
            "name": "OwnershipTransferred",
            "type": "event"
        },
        {
            "inputs": [
                {
                    "internalType": "bytes32",
                    "name": "commandId",
                    "type": "bytes32"
                },
                {
                    "internalType": "string",
                    "name": "sourceChain",
                    "type": "string"
                },
                {
                    "internalType": "string",
                    "name": "sourceAddress",
                    "type": "string"
                },
                {
                    "internalType": "bytes",
                    "name": "payload",
                    "type": "bytes"
                }
            ],
            "name": "execute",
            "outputs": [],
            "stateMutability": "nonpayable",
            "type": "function"
        },
        {
            "inputs": [
                {
                    "internalType": "bytes32",
                    "name": "commandId",
                    "type": "bytes32"
                },
                {
                    "internalType": "string",
                    "name": "sourceChain",
                    "type": "string"
                },
                {
                    "internalType": "string",
                    "name": "sourceAddress",
                    "type": "string"
                },
                {
                    "internalType": "bytes",
                    "name": "payload",
                    "type": "bytes"
                },
                {
                    "internalType": "string",
                    "name": "tokenSymbol",
                    "type": "string"
                },
                {
                    "internalType": "uint256",
                    "name": "amount",
                    "type": "uint256"
                }
            ],
            "name": "executeWithToken",
            "outputs": [],
            "stateMutability": "nonpayable",
            "type": "function"
        },
        {
            "inputs": [],
            "name": "gateway",
            "outputs": [
                {
                    "internalType": "contract IAxelarGateway",
                    "name": "",
                    "type": "address"
                }
            ],
            "stateMutability": "view",
            "type": "function"
        },
        {
            "inputs": [],
            "name": "owner",
            "outputs": [
                {
                    "internalType": "address",
                    "name": "",
                    "type": "address"
                }
            ],
            "stateMutability": "view",
            "type": "function"
        },
        {
            "inputs": [],
            "name": "renounceOwnership",
            "outputs": [],
            "stateMutability": "nonpayable",
            "type": "function"
        },
        {
            "inputs": [],
            "name": "retreive_aUSDC",
            "outputs": [],
            "stateMutability": "nonpayable",
            "type": "function"
        },
        {
            "inputs": [
                {
                    "internalType": "address",
                    "name": "newOwner",
                    "type": "address"
                }
            ],
            "name": "transferOwnership",
            "outputs": [],
            "stateMutability": "nonpayable",
            "type": "function"
        }
    ],
    "bytecode": {
        "object": "0x6080604052600280546001600160a01b03191673a0b86991c6218b36c1d19d4a2e9eb0ce3606eb4817905534801561003657600080fd5b506100403361010d565b600080546001600160a01b03191673e432150cce91c13a887f7d836923d5597add8e311790556000546040516349ad89fb60e11b8152602060048201526005602482015264615553444360d81b60448201526001600160a01b039091169063935b13f690606401602060405180830381865afa1580156100c4573d6000803e3d6000fd5b505050506040513d601f19601f820116820180604052508101906100e8919061015f565b600380546001600160a01b0319166001600160a01b039290921691909117905561018f565b600180546001600160a01b038381166001600160a01b0319831681179093556040519116919082907f8be0079c531659141344cd1fd0a4f28419497f9722a3daafe3b4186f6b6457e090600090a35050565b60006020828403121561017157600080fd5b81516001600160a01b038116811461018857600080fd5b9392505050565b61089d8061019e6000396000f3fe608060405234801561001057600080fd5b506004361061007d5760003560e01c8063715018a61161005b578063715018a6146100d95780638da5cb5b146100e1578063dd899967146100f2578063f2fde38b146100fa57600080fd5b8063116191b6146100825780631a98b2e0146100b157806349160658146100c6575b600080fd5b600054610095906001600160a01b031681565b6040516001600160a01b03909116815260200160405180910390f35b6100c46100bf36600461059c565b61010d565b005b6100c46100d4366004610676565b6101e4565b6100c46102a1565b6001546001600160a01b0316610095565b6100c46102b5565b6100c461010836600461072f565b6103a5565b6000858560405161011f929190610753565b604051908190038120600054631876eed960e01b83529092506001600160a01b031690631876eed990610166908e908e908e908e908e9089908d908d908d9060040161078c565b6020604051808303816000875af1158015610185573d6000803e3d6000fd5b505050506040513d601f19601f820116820180604052508101906101a991906107eb565b6101c657604051631403112d60e21b815260040160405180910390fd5b6101d78a8a8a8a8a8a8a8a8a610420565b5050505050505050505050565b600082826040516101f6929190610753565b604051908190038120600054635f6970c360e01b83529092506001600160a01b031690635f6970c390610237908b908b908b908b908b90899060040161080d565b6020604051808303816000875af1158015610256573d6000803e3d6000fd5b505050506040513d601f19601f8201168201806040525081019061027a91906107eb565b61029757604051631403112d60e21b815260040160405180910390fd5b5050505050505050565b6102a96104a7565b6102b36000610501565b565b6102bd6104a7565b6003546040516370a0823160e01b81523060048201526001600160a01b039091169063a9059cbb90339083906370a0823190602401602060405180830381865afa15801561030f573d6000803e3d6000fd5b505050506040513d601f19601f82011682018060405250810190610333919061084e565b6040516001600160e01b031960e085901b1681526001600160a01b03909216600483015260248201526044016020604051808303816000875af115801561037e573d6000803e3d6000fd5b505050506040513d601f19601f820116820180604052508101906103a291906107eb565b50565b6103ad6104a7565b6001600160a01b0381166104175760405162461bcd60e51b815260206004820152602660248201527f4f776e61626c653a206e6577206f776e657220697320746865207a65726f206160448201526564647265737360d01b60648201526084015b60405180910390fd5b6103a281610501565b600061042e8587018761072f565b60025460405163a9059cbb60e01b81526001600160a01b0380841660048301526024820186905292935091169063a9059cbb906044016020604051808303816000875af1158015610483573d6000803e3d6000fd5b505050506040513d601f19601f820116820180604052508101906101d791906107eb565b6001546001600160a01b031633146102b35760405162461bcd60e51b815260206004820181905260248201527f4f776e61626c653a2063616c6c6572206973206e6f7420746865206f776e6572604482015260640161040e565b600180546001600160a01b038381166001600160a01b0319831681179093556040519116919082907f8be0079c531659141344cd1fd0a4f28419497f9722a3daafe3b4186f6b6457e090600090a35050565b60008083601f84011261056557600080fd5b50813567ffffffffffffffff81111561057d57600080fd5b60208301915083602082850101111561059557600080fd5b9250929050565b60008060008060008060008060008060c08b8d0312156105bb57600080fd5b8a35995060208b013567ffffffffffffffff808211156105da57600080fd5b6105e68e838f01610553565b909b50995060408d01359150808211156105ff57600080fd5b61060b8e838f01610553565b909950975060608d013591508082111561062457600080fd5b6106308e838f01610553565b909750955060808d013591508082111561064957600080fd5b506106568d828e01610553565b9150809450508092505060a08b013590509295989b9194979a5092959850565b60008060008060008060006080888a03121561069157600080fd5b87359650602088013567ffffffffffffffff808211156106b057600080fd5b6106bc8b838c01610553565b909850965060408a01359150808211156106d557600080fd5b6106e18b838c01610553565b909650945060608a01359150808211156106fa57600080fd5b506107078a828b01610553565b989b979a50959850939692959293505050565b6001600160a01b03811681146103a257600080fd5b60006020828403121561074157600080fd5b813561074c8161071a565b9392505050565b8183823760009101908152919050565b81835281816020850137506000828201602090810191909152601f909101601f19169091010190565b89815260c0602082015260006107a660c083018a8c610763565b82810360408401526107b981898b610763565b905086606084015282810360808401526107d4818688610763565b9150508260a08301529a9950505050505050505050565b6000602082840312156107fd57600080fd5b8151801515811461074c57600080fd5b868152608060208201526000610827608083018789610763565b828103604084015261083a818688610763565b915050826060830152979650505050505050565b60006020828403121561086057600080fd5b505191905056fea26469706673582212208ef5211609c03234bddec90f484b595e9ffc31ad3ad2f285072eab0c6f0a84ce64736f6c63430008130033",
        "linkReferences": {}
    },
    "methodIdentifiers": {
        "execute(bytes32,string,string,bytes)": "49160658",
        "executeWithToken(bytes32,string,string,bytes,string,uint256)": "1a98b2e0",
        "gateway()": "116191b6",
        "owner()": "8da5cb5b",
        "renounceOwnership()": "715018a6",
        "retreive_aUSDC()": "dd899967",
        "transferOwnership(address)": "f2fde38b"
    },
    "id": 24
}