{
    "abi": [
        {
            "inputs": [],
            "name": "InvalidAddress",
            "type": "error"
        },
        {
            "inputs": [],
            "name": "NotApprovedByGateway",
            "type": "error"
        },
        {
            "inputs": [],
            "name": "DESTINATION_CHAIN",
            "outputs": [
                {
                    "internalType": "string",
                    "name": "",
                    "type": "string"
                }
            ],
            "stateMutability": "view",
            "type": "function"
        },
        {
            "inputs": [],
            "name": "GAS_SERVICE",
            "outputs": [
                {
                    "internalType": "contract IAxelarGasService",
                    "name": "",
                    "type": "address"
                }
            ],
            "stateMutability": "view",
            "type": "function"
        },
        {
            "inputs": [],
            "name": "GATEWAY",
            "outputs": [
                {
                    "internalType": "address",
                    "name": "",
                    "type": "address"
                }
            ],
            "stateMutability": "view",
            "type": "function"
        },
        {
            "inputs": [],
            "name": "MERCHANT",
            "outputs": [
                {
                    "internalType": "address",
                    "name": "",
                    "type": "address"
                }
            ],
            "stateMutability": "view",
            "type": "function"
        },
        {
            "inputs": [],
            "name": "SYMBOL",
            "outputs": [
                {
                    "internalType": "string",
                    "name": "",
                    "type": "string"
                }
            ],
            "stateMutability": "view",
            "type": "function"
        },
        {
            "inputs": [
                {
                    "internalType": "string",
                    "name": "RECEIVER_CONTRACT",
                    "type": "string"
                }
            ],
            "name": "Transfer_tokens",
            "outputs": [],
            "stateMutability": "payable",
            "type": "function"
        },
        {
            "inputs": [],
            "name": "USDC",
            "outputs": [
                {
                    "internalType": "contract IERC20",
                    "name": "",
                    "type": "address"
                }
            ],
            "stateMutability": "view",
            "type": "function"
        },
        {
            "inputs": [],
            "name": "aUSDC",
            "outputs": [
                {
                    "internalType": "contract IERC20",
                    "name": "",
                    "type": "address"
                }
            ],
            "stateMutability": "view",
            "type": "function"
        },
        {
            "inputs": [
                {
                    "internalType": "bytes32",
                    "name": "commandId",
                    "type": "bytes32"
                },
                {
                    "internalType": "string",
                    "name": "sourceChain",
                    "type": "string"
                },
                {
                    "internalType": "string",
                    "name": "sourceAddress",
                    "type": "string"
                },
                {
                    "internalType": "bytes",
                    "name": "payload",
                    "type": "bytes"
                }
            ],
            "name": "execute",
            "outputs": [],
            "stateMutability": "nonpayable",
            "type": "function"
        },
        {
            "inputs": [
                {
                    "internalType": "bytes32",
                    "name": "commandId",
                    "type": "bytes32"
                },
                {
                    "internalType": "string",
                    "name": "sourceChain",
                    "type": "string"
                },
                {
                    "internalType": "string",
                    "name": "sourceAddress",
                    "type": "string"
                },
                {
                    "internalType": "bytes",
                    "name": "payload",
                    "type": "bytes"
                },
                {
                    "internalType": "string",
                    "name": "tokenSymbol",
                    "type": "string"
                },
                {
                    "internalType": "uint256",
                    "name": "amount",
                    "type": "uint256"
                }
            ],
            "name": "executeWithToken",
            "outputs": [],
            "stateMutability": "nonpayable",
            "type": "function"
        },
        {
            "inputs": [],
            "name": "gateway",
            "outputs": [
                {
                    "internalType": "contract IAxelarGateway",
                    "name": "",
                    "type": "address"
                }
            ],
            "stateMutability": "view",
            "type": "function"
        },
        {
            "inputs": [
                {
                    "internalType": "address",
                    "name": "_merchant",
                    "type": "address"
                },
                {
                    "internalType": "string",
                    "name": "_destinationchain",
                    "type": "string"
                },
                {
                    "internalType": "address",
                    "name": "_USDC",
                    "type": "address"
                },
                {
                    "internalType": "address",
                    "name": "_gateway",
                    "type": "address"
                },
                {
                    "internalType": "address",
                    "name": "_gasService",
                    "type": "address"
                },
                {
                    "internalType": "string",
                    "name": "_receivercontract",
                    "type": "string"
                }
            ],
            "name": "initialize",
            "outputs": [],
            "stateMutability": "nonpayable",
            "type": "function"
        }
    ],
    "bytecode": {
        "object": "0x608060405234801561001057600080fd5b50610fdd806100206000396000f3fe6080604052600436106100a75760003560e01c8063559fda3311610064578063559fda331461019157806385b6813c146101b157806389a30271146101c4578063997f35eb146101e45780639ff931f914610204578063f76f8d781461022457600080fd5b80630d114ef8146100ac5780630ec48e53146100d7578063116191b6146100f95780631a98b2e014610131578063338c5371146101515780634916065814610171575b600080fd5b3480156100b857600080fd5b506100c1610255565b6040516100ce919061084f565b60405180910390f35b3480156100e357600080fd5b506100f76100f2366004610924565b6102e3565b005b34801561010557600080fd5b50600054610119906001600160a01b031681565b6040516001600160a01b0390911681526020016100ce565b34801561013d57600080fd5b506100f761014c366004610a20565b6104cd565b34801561015d57600080fd5b50600254610119906001600160a01b031681565b34801561017d57600080fd5b506100f761018c366004610afa565b610593565b34801561019d57600080fd5b50600554610119906001600160a01b031681565b6100f76101bf366004610b9e565b610650565b3480156101d057600080fd5b50600454610119906001600160a01b031681565b3480156101f057600080fd5b50600654610119906001600160a01b031681565b34801561021057600080fd5b50600154610119906001600160a01b031681565b34801561023057600080fd5b506100c160405180604001604052806005815260200164615553444360d81b81525081565b6003805461026290610bdb565b80601f016020809104026020016040519081016040528092919081815260200182805461028e90610bdb565b80156102db5780601f106102b0576101008083540402835291602001916102db565b820191906000526020600020905b8154815290600101906020018083116102be57829003601f168201915b505050505081565b600154600160a01b900460ff16156103375760405162461bcd60e51b8152602060048201526013602482015272105b1c9958591e481a5b9a5d1a585b1a5e9959606a1b604482015260640160405180910390fd5b600080546001600160a01b0319166001600160a01b038516179055600180546001600160a01b0319166001600160a01b03881617905560036103798682610c60565b50600480546001600160a01b038087166001600160a01b0319928316178355600280548783169316929092179091556000546040805180820182526005815264615553444360d81b602082015290516349ad89fb60e11b8152919092169263935b13f6926103e99290910161084f565b602060405180830381865afa158015610406573d6000803e3d6000fd5b505050506040513d601f19601f8201168201806040525081019061042a9190610d20565b600580546001600160a01b03199081166001600160a01b039384169081179092556006805490911685841617905560025460405163095ea7b360e01b81529216600483015260001960248301529063095ea7b3906044016020604051808303816000875af11580156104a0573d6000803e3d6000fd5b505050506040513d601f19601f820116820180604052508101906104c49190610d3d565b50505050505050565b600085856040516104df929190610d5f565b604051908190038120600054631876eed960e01b83529092506001600160a01b031690631876eed990610526908e908e908e908e908e9089908d908d908d90600401610d98565b6020604051808303816000875af1158015610545573d6000803e3d6000fd5b505050506040513d601f19601f820116820180604052508101906105699190610d3d565b61058657604051631403112d60e21b815260040160405180910390fd5b5050505050505050505050565b600082826040516105a5929190610d5f565b604051908190038120600054635f6970c360e01b83529092506001600160a01b031690635f6970c3906105e6908b908b908b908b908b908990600401610df7565b6020604051808303816000875af1158015610605573d6000803e3d6000fd5b505050506040513d601f19601f820116820180604052508101906106299190610d3d565b61064657604051631403112d60e21b815260040160405180910390fd5b5050505050505050565b600154604080516001600160a01b0390921660208301526000910160408051808303601f1901815290829052600480546370a0823160e01b845230918401919091529092506000916001600160a01b03909116906370a0823190602401602060405180830381865afa1580156106ca573d6000803e3d6000fd5b505050506040513d601f19601f820116820180604052508101906106ee9190610e38565b90503415610781576006546040805180820182526005815264615553444360d81b60208201529051636316100160e11b81526001600160a01b039092169163c62c200291349161074e9130916003918a918a91908a903390600401610ece565b6000604051808303818588803b15801561076757600080fd5b505af115801561077b573d6000803e3d6000fd5b50505050505b6000546040805180820182526005815264615553444360d81b60208201529051632d505c2160e21b81526001600160a01b039092169163b5417084916107d39160039188918891908890600401610f47565b600060405180830381600087803b1580156107ed57600080fd5b505af11580156104c4573d6000803e3d6000fd5b505050505050565b6000815180845260005b8181101561082f57602081850181015186830182015201610813565b506000602082860101526020601f19601f83011685010191505092915050565b6020815260006108626020830184610809565b9392505050565b6001600160a01b038116811461087e57600080fd5b50565b634e487b7160e01b600052604160045260246000fd5b600082601f8301126108a857600080fd5b813567ffffffffffffffff808211156108c3576108c3610881565b604051601f8301601f19908116603f011681019082821181831017156108eb576108eb610881565b8160405283815286602085880101111561090457600080fd5b836020870160208301376000602085830101528094505050505092915050565b60008060008060008060c0878903121561093d57600080fd5b863561094881610869565b9550602087013567ffffffffffffffff8082111561096557600080fd5b6109718a838b01610897565b96506040890135915061098382610869565b90945060608801359061099582610869565b9093506080880135906109a782610869565b90925060a088013590808211156109bd57600080fd5b506109ca89828a01610897565b9150509295509295509295565b60008083601f8401126109e957600080fd5b50813567ffffffffffffffff811115610a0157600080fd5b602083019150836020828501011115610a1957600080fd5b9250929050565b60008060008060008060008060008060c08b8d031215610a3f57600080fd5b8a35995060208b013567ffffffffffffffff80821115610a5e57600080fd5b610a6a8e838f016109d7565b909b50995060408d0135915080821115610a8357600080fd5b610a8f8e838f016109d7565b909950975060608d0135915080821115610aa857600080fd5b610ab48e838f016109d7565b909750955060808d0135915080821115610acd57600080fd5b50610ada8d828e016109d7565b9150809450508092505060a08b013590509295989b9194979a5092959850565b60008060008060008060006080888a031215610b1557600080fd5b87359650602088013567ffffffffffffffff80821115610b3457600080fd5b610b408b838c016109d7565b909850965060408a0135915080821115610b5957600080fd5b610b658b838c016109d7565b909650945060608a0135915080821115610b7e57600080fd5b50610b8b8a828b016109d7565b989b979a50959850939692959293505050565b600060208284031215610bb057600080fd5b813567ffffffffffffffff811115610bc757600080fd5b610bd384828501610897565b949350505050565b600181811c90821680610bef57607f821691505b602082108103610c0f57634e487b7160e01b600052602260045260246000fd5b50919050565b601f821115610c5b57600081815260208120601f850160051c81016020861015610c3c5750805b601f850160051c820191505b8181101561080157828155600101610c48565b505050565b815167ffffffffffffffff811115610c7a57610c7a610881565b610c8e81610c888454610bdb565b84610c15565b602080601f831160018114610cc35760008415610cab5750858301515b600019600386901b1c1916600185901b178555610801565b600085815260208120601f198616915b82811015610cf257888601518255948401946001909101908401610cd3565b5085821015610d105787850151600019600388901b60f8161c191681555b5050505050600190811b01905550565b600060208284031215610d3257600080fd5b815161086281610869565b600060208284031215610d4f57600080fd5b8151801515811461086257600080fd5b8183823760009101908152919050565b81835281816020850137506000828201602090810191909152601f909101601f19169091010190565b89815260c060208201526000610db260c083018a8c610d6f565b8281036040840152610dc581898b610d6f565b90508660608401528281036080840152610de0818688610d6f565b9150508260a08301529a9950505050505050505050565b868152608060208201526000610e11608083018789610d6f565b8281036040840152610e24818688610d6f565b915050826060830152979650505050505050565b600060208284031215610e4a57600080fd5b5051919050565b60008154610e5e81610bdb565b808552602060018381168015610e7b5760018114610e9557610ec3565b60ff1985168884015283151560051b880183019550610ec3565b866000528260002060005b85811015610ebb5781548a8201860152908301908401610ea0565b890184019650505b505050505092915050565b600060018060a01b03808a16835260e06020840152610ef060e084018a610e51565b8381036040850152610f02818a610809565b90508381036060850152610f168189610809565b90508381036080850152610f2a8188610809565b60a0850196909652509290921660c0909101525095945050505050565b60a081526000610f5a60a0830188610e51565b8281036020840152610f6c8188610809565b90508281036040840152610f808187610809565b90508281036060840152610f948186610809565b915050826080830152969550505050505056fea2646970667358221220eba28c48c0259d5149dbf1805b2c09ccf367410eb39619cb7ce3c6746651ab4d64736f6c63430008130033",
        "linkReferences": {}
    },
    "methodIdentifiers": {
        "DESTINATION_CHAIN()": "0d114ef8",
        "GAS_SERVICE()": "997f35eb",
        "GATEWAY()": "338c5371",
        "MERCHANT()": "9ff931f9",
        "SYMBOL()": "f76f8d78",
        "Transfer_tokens(string)": "85b6813c",
        "USDC()": "89a30271",
        "aUSDC()": "559fda33",
        "execute(bytes32,string,string,bytes)": "49160658",
        "executeWithToken(bytes32,string,string,bytes,string,uint256)": "1a98b2e0",
        "gateway()": "116191b6",
        "initialize(address,string,address,address,address,string)": "0ec48e53"
    },
    "id": 25
}